:100000000C9462000C948A000C948A000C948A0070
:100010000C948A000C948A000C948A000C948A0038
:100020000C948A000C948A000C948A000C940506A7
:100030000C948A000C948A000C948A000C948A0018
:100040000C94BB050C948A000C9489050C946305F0
:100050000C948A000C948A000C948A000C948A00F8
:100060000C948A000C948A000000000024002700F1
:100070002A0000000000250028002B0000000000DE
:1000800023002600290004040404040404040202DA
:100090000202020203030303030301020408102007
:1000A0004080010204081020010204081020000012
:1000B0000008000201000003040700000000000027
:1000C0000000C10611241FBECFEFD8E0DEBFCDBFB8
:1000D00011E0A0E0B1E0E6EAF8E102C005900D927F
:1000E000A03FB107D9F723E0A0EFB1E001C01D9216
:1000F000AA34B207E1F710E0C2E6D0E004C02197CD
:10010000FE010E944B0CC136D107C9F70E94960729
:100110000C94510C0C940000CF92DF92EF92FF925E
:10012000DC01A03282E0B807D4F5A53BB10514F09C
:10013000A4EBB0E04091480328E830E0241B3109EB
:1001400047FD3395220F331F220F331F6901330FF1
:10015000EE08FF084091490328E532E0241B3109ED
:1001600047FD3395220F331F220F331F032E000C40
:10017000440B550B2C193D094E095F09B7FF02C00E
:10018000B0E0A0E00E94060C24EB30E040E050E03C
:100190000E94DC0BC20ED31EE41EF51ED601E091B8
:1001A0004703EC3080F52091480388E890E0821BFB
:1001B000910927FD9395880F991F880F991FA817FC
:1001C000B90784F02091490388E592E0821B9109E8
:1001D00027FD9395880F991F880F991FA817B907B6
:1001E0000CF4CD010297880F991F4FB7F8942E2F6A
:1001F00030E0F901EE0FFF1FE20FF31FE556FD4F50
:10020000928381834FBFFF90EF90DF90CF9008954E
:1002100096E0899FD0011124A054BD4F90967C9305
:100220006E935F9791E091969C939197E0912D0347
:10023000F0912E0390912C03992339F0309751F0CF
:10024000811108C08091DC020994309719F05C9606
:100250008C91FACF0895CF92DF92EF92FF920F9395
:100260001F9396E0899FF0011124E054FD4F11A2E5
:10027000278D30A12130310551F178F02230310540
:1002800009F451C02330310509F452C01F910F9178
:10029000FF90EF90DF90CF9008956623B9F361E06F
:1002A00070E00E9408012FB7F8948091FA019091B4
:1002B000FB01A091FC01B091FD012FBF80931803B9
:1002C00090931903A0931A03B0931B03DFCF9FB73A
:1002D000F894C090FA01D090FB01E090FC01F090FE
:1002E000FD019FBF009118031091190320911A037B
:1002F00030911B03C01AD10AE20AF30A00912A03C3
:1003000010912B0330E020E00C151D052E053F0554
:1003100050F462E070E01F910F91FF90EF90DF903A
:10032000CF900C9408016111B1CF63E070E0F3CF7E
:1003300070E060E0F0CFFC01538D448D252F30E05C
:10034000842F90E0821B930B541710F0CF960895E2
:1003500001970895FC01918D828D981761F0A28D0F
:10036000AE0FBF2FB11D5D968C91928D9F5F9F73D5
:10037000928F90E008958FEF9FEF0895FC01918D8B
:10038000828D981731F0828DE80FF11D858D90E0F8
:1003900008958FEF9FEF0895FC01918D228D892F95
:1003A00090E0805C9F4F821B91098F73992708957D
:1003B000FC01A48DA80FB92FB11DA35ABF4F2C91DA
:1003C000848D90E001968F739927848FA689B789D1
:1003D0002C93A089B1898C91837080648C93938DC8
:1003E000848D981306C00288F389E02D80818F7D6B
:1003F00080830895EF92FF920F931F93CF93DF9323
:10040000EC0181E0888F9B8D8C8D98131AC0E88950
:10041000F989808185FF15C09FB7F894EE89FF891F
:100420006083E889F98980818370806480839FBFBD
:1004300081E090E0DF91CF911F910F91FF90EF90BD
:100440000895F62E0B8D10E00F5F1F4F0F731127CD
:10045000E02E8C8D8E110CC00FB607FCFACFE88908
:10046000F989808185FFF5CFCE010E94D801F1CFB7
:10047000EB8DEC0FFD2FF11DE35AFF4FF0829FB77C
:10048000F8940B8FEA89FB8980818062CFCFCF936C
:10049000DF93EC01888D8823B9F0AA89BB89E889AC
:1004A000F9898C9185FD03C0808186FD0DC00FB652
:1004B00007FCF7CF8C9185FFF2CF808185FFEDCFD0
:1004C000CE010E94D801E9CFDF91CF9108958EEF40
:1004D00091E00E94CC0121E0892B09F420E0822FD9
:1004E000089580E090E0892B29F00E946702811135
:1004F0000C9400000895AF92BF92CF92DF92EF92DA
:10050000FF920F931F93CF93DF936C017B018B01BD
:10051000040F151FEB015E01AE18BF08C017D1070D
:1005200059F06991D601ED91FC910190F081E02D97
:10053000C6010995892B79F7C501DF91CF911F91EC
:100540000F91FF90EF90DF90CF90BF90AF90089504
:10055000833081F028F4813099F08230A9F0089539
:100560008730A9F08830C9F08430B1F480918000E0
:100570008F7D03C0809180008F77809380000895E5
:1005800084B58F7784BD089584B58F7DFBCF80912E
:10059000B0008F778093B00008958091B0008F7D78
:1005A000F9CFCF93DF93282F30E0F901E255FF4FC9
:1005B0008491F901E656FF4FD491F901EA57FF4FB4
:1005C000C491CC23A1F081110E94A802EC2FF0E08D
:1005D000EE0FFF1FE458FF4FA591B491EC91ED236E
:1005E00081E090E009F480E0DF91CF91089580E010
:1005F00090E0FACF862F0C94D1021F93CF93DF9314
:10060000282F30E0F901E255FF4F8491F901E656B9
:10061000FF4FD491F901EA57FF4FC491CC23A9F0C1
:10062000162F81110E94A802EC2FF0E0EE0FFF1FA1
:10063000EE58FF4FA591B4918FB7F894EC9111113A
:1006400008C0D095DE23DC938FBFDF91CF911F913F
:100650000895DE2BF8CF862F642F0C94FD02CF93E4
:10066000DF9390E0FC01E656FF4F24918A579F4F9D
:10067000FC0184918823C9F090E0880F991FFC0148
:10068000E859FF4FA591B491FC01EE58FF4FC59179
:10069000D49161110DC09FB7F8948C91209582235D
:1006A0008C938881282328839FBFDF91CF91089561
:1006B000623051F49FB7F8943C91822F8095832348
:1006C0008C93E8812E2BEFCF8FB7F894EC912E2BE3
:1006D0002C938FBFEACF862F642F0C942F033FB744
:1006E000F8948091F2019091F301A091F401B091FE
:1006F000F50126B5A89B05C02F3F19F00196A11D55
:10070000B11D3FBFBA2FA92F982F8827BC01CD015B
:10071000620F711D811D911D42E0660F771F881FBA
:10072000991F4A95D1F708958F929F92AF92BF92E9
:10073000CF92DF92EF92FF924B015C010E946F0318
:100740006B017C010E946F036C197D098E099F0962
:10075000683E734081059105A8F321E0821A910853
:10076000A108B10888EEC80E83E0D81EE11CF11C78
:1007700081149104A104B10429F7FF90EF90DF9058
:10078000CF90BF90AF909F908F900895089590E084
:1007900080E00895FB0101900020E9F73197AF0157
:1007A000461B570BDC01ED91FC910280F381E02D9B
:1007B0000994BC018FE293E00C94CA030F931F933A
:1007C000CF93DF93EC010E94CA038C016BE371E0CD
:1007D000CE010E94CA03800F911FDF91CF911F911C
:1007E0000F910895CF93DF93EC0160E08E810E941A
:1007F000FD0261E08E810E94FD0260E08E810E9418
:10080000FD028BE891E00197F1F7DF91CF91089518
:10081000CF92DF92EF92FF920F931F93CF93DF93CC
:100820006C017C0187E0E80EF11CD0E0C0E0062FEF
:1008300010E0B8010C2E02C0759567950A94E2F796
:100840006170F70181917F010E94FD022196C43001
:10085000D10579F7C601DF91CF911F910F91FF90DC
:10086000EF90DF90CF900C94F203CF92DF92EF9253
:10087000FF920F931F93CF93DF93EC01F62E642F1B
:100880008C810E94FD028D818F3F19F060E00E94F3
:10089000FD020F2D10E08F8584FF25C06E0187E0DB
:1008A000C80ED11CF12CE12CB8010E2C02C075959C
:1008B00067950A94E2F76170F60181916F010E94D9
:1008C000FD02FFEFEF1AFF0A88E0E816F10461F776
:1008D000CE01DF91CF911F910F91FF90EF90DF90AC
:1008E000CF900C94F203B80184E0759567958A95D2
:1008F000E1F7CE010E9408046F2DCE01DF91CF9168
:100900001F910F91FF90EF90DF90CF900C9408040F
:1009100040E0682F8FE293E00C94350481E00E9460
:1009200088048BE39FE10197F1F70895CF93DF935C
:10093000823029F490913E03986090933E03809317
:1009400042031092430380E48093440380E1809348
:10095000450380E58093460361E0809133030E9464
:100960002F03809134038F3F19F061E00E942F0321
:1009700061E0809135030E942F03CFE2D3E09E0116
:100980002F52334080913E0384FD0BC084E090E001
:1009900021962817390744F461E08E810E942F03C5
:1009A000EECF88E090E0F4CF8BE39DE00197F1F784
:1009B00060E0809133030E94FD0260E08091350386
:1009C0000E94FD02809134038F3F19F060E00E9485
:1009D000FD0280913E0384FD34C063E08FE293E02A
:1009E0000E940804CBE4D6E4CE010197F1F763E05E
:1009F0008FE293E00E9408042197F1F763E08FE211
:100A000093E00E94080483E592E00197F1F762E029
:100A10008FE293E00E94080480913E0380620E946E
:100A2000880484E080933F038CE00E9488040E9445
:100A30008E0482E08093400386E0DF91CF910C9496
:100A4000880480620E9488048BE496E40197F1F7A1
:100A500080913E0380620E94880483E592E00197C2
:100A6000F1F780913E0380620E948804D5CF643004
:100A700008F063E090914203691710F06FEF690F7F
:100A8000E62FF0E0E15DFC4F9489890F80680C94BB
:100A9000880460E080E00E9437056EE371E08FE239
:100AA00093E00E94DE0361E081E00E9437056FE47D
:100AB00071E08FE293E00C94DE0341E00E94350484
:100AC00081E090E008951F920F920FB60F921124CB
:100AD0002F933F934F935F936F937F938F939F9346
:100AE000AF93BF93EF93FF938EEF91E00E94D801F5
:100AF000FF91EF91BF91AF919F918F917F916F91F6
:100B00005F914F913F912F910F900FBE0F901F90CB
:100B100018951F920F920FB60F9211242F938F9357
:100B20009F93EF93FF93E0910E02F0910F0280816B
:100B3000E0911402F091150282FD1BC0908180911A
:100B400017028F5F8F7320911802821741F0E09196
:100B50001702F0E0E250FE4F958F80931702FF914D
:100B6000EF919F918F912F910F900FBE0F901F903B
:100B700018958081F4CF1F920F920FB60F92112417
:100B80002F933F938F939F93AF93BF938091FA01DD
:100B90009091FB01A091FC01B091FD013091F10118
:100BA00023E0230F2D3758F50196A11DB11D209389
:100BB000F1018093FA019093FB01A093FC01B093A3
:100BC000FD018091F2019091F301A091F401B091A7
:100BD000F5010196A11DB11D8093F2019093F301DF
:100BE000A093F401B093F501BF91AF919F918F91C4
:100BF0003F912F910F900FBE0F901F90189526E8F0
:100C0000230F0296A11DB11DD2CF1F920F920FB6D6
:100C10000F9211242F933F934F935F936F937F9382
:100C20008F939F93AF93BF93CF93DF93EF93FF93F4
:100C30008091F001C091BF02D0E087FF24C01092E4
:100C40008500109284008091F0018F5F8093F00105
:100C50008091F001082E000C990B8C179D0724F44D
:100C60008091F0018C30C4F18091840090918500D6
:100C7000049680349C4908F47AC080918400909155
:100C80008500049676C08091F001082E000C990B27
:100C90008C179D07C4F6E091F0018E2FEE0F990B93
:100CA000FC01EE0FFF1FE80FF91FE556FD4F808195
:100CB00086FFC9CFE091F0018E2FEE0F990BFC015A
:100CC000EE0FFF1FE80FF91FE556FD4F808160E032
:100CD0008F730E94FD02B7CF209184003091850070
:100CE000E091F0018E2FEE0F990BFC01EE0FFF1F2C
:100CF000E80FF91FE556FD4F81819281820F931F06
:100D00009093890080938800E091F0018E2FEE0F80
:100D1000990BFC01EE0FFF1FE80FF91FE556FD4F81
:100D2000808186FF11C0E091F0018E2FEE0F990BAC
:100D3000FC01EE0FFF1FE80FF91FE556FD4F808104
:100D400061E08F730E94FD02FF91EF91DF91CF91DF
:100D5000BF91AF919F918F917F916F915F914F91D3
:100D60003F912F910F900FBE0F901F90189580E428
:100D70009CE990938900809388008FEF8093F00125
:100D8000E3CF109201021092000288EE93E0A0E0FF
:100D9000B0E08093020290930302A0930402B09308
:100DA000050287E191E09093FF018093FE0185ECBD
:100DB00090E090930B0280930A0284EC90E0909371
:100DC0000D0280930C0280EC90E090930F028093D0
:100DD0000E0281EC90E0909311028093100282EC5D
:100DE00090E0909313028093120286EC90E090932F
:100DF000150280931402109217021092180210929A
:100E0000190210921A028091BF028C3008F08AC039
:100E100091E0980F9093BF028093470390E0FC010C
:100E2000EE0FFF1FE80FF91FE556FD4F88EB9BE023
:100E300092838183109232031092310383E391E015
:100E40009093300380932F0382E1809333038FEFDD
:100E50008093340383E18093350381E180933603EB
:100E600080E1809337038FE0809338038EE0809396
:100E7000390310923A0310923B0310923C031092F4
:100E80003D0310923E0381E00E9496041092C2023C
:100E90001092C6021092C5021092C70289E291E038
:100EA0009093C1028093C002ECEDF2E010821482B4
:100EB00013821582369683E0E831F807B9F783E0AC
:100EC00091E0909323038093220380E091E090933C
:100ED00025038093240384E08093260383E080939A
:100EE000270387E091E090932103809320038AE019
:100EF00090E0909329038093280384EF91E09093EE
:100F00002B0380932A0310922E0310922D0310922C
:100F10001C0310921D0310921E0310921F031092C7
:100F20002C0308958FEF8093470384CF789484B582
:100F3000826084BD84B5816084BD85B5826085BDD5
:100F400085B5816085BD80916E00816080936E0063
:100F50001092810080918100826080938100809155
:100F60008100816080938100809180008160809306
:100F700080008091B10084608093B1008091B000C6
:100F800081608093B00080917A00846080937A00C1
:100F900080917A00826080937A0080917A008160EB
:100FA00080937A0080917A00806880937A00109212
:100FB000C1000E944905809147038C3008F051C060
:100FC00061E089E00E942F0380914703282F30E0E1
:100FD000F901EE0FFF1FE20FF31FE556FD4F908161
:100FE000907C9960908310924803109249032CE002
:100FF000622F0E943F0C829FB001112430E020E05C
:10100000AB01420F531FFA01EE0FFF1FE40FF51F54
:10101000E556FD4F908196FD16C02F5F3F4F2C3057
:10102000310571F781110FC01092800082E080932A
:1010300081001092850010928400B19A80916F0017
:10104000826080936F00E09147038E2F90E0FC0157
:10105000EE0FFF1FE80FF91FE556FD4F80818064FA
:10106000808382E00E949604812C912C5401839409
:1010700040E0442E40E0542E54EB652E712C8091BC
:10108000F8019091F901892B11F40E94490551E072
:1010900050932C038FB7F8944091FA015091FB01C3
:1010A0006091FC017091FD018FBF80911C039091B4
:1010B0001D03A0911E03B0911F03481B590B6A0B1F
:1010C0007B0B8091280390912903B0E0A0E0841766
:1010D0009507A607B70708F017C1C0E0809126035F
:1010E000C81760F4E0912203F0912303EC0FF11D87
:1010F00062E080810E942F03CF5FF0CF312C80917E
:101100002703381608F05FC0032D10E0E091240398
:10111000F0912503E00FF11F61E080810E942F0311
:10112000E0912403F0912503E00FF11F60E080813E
:101130000E94FD02D501C401032C04C0880F991F31
:10114000AA1FBB1F0A94D2F76C017C01E094F094B3
:10115000212C809126032816F8F4C22DD0E0E091CE
:101160002203F0912303EC0FFD1F80810E94D10226
:101170002496CC0FDD1FC054DD4F892B41F48881AC
:1011800099818C299D29998388832394E2CF888132
:1011900099818E219F21F7CFE0912403F0912503BF
:1011A000E00FF11F61E080810E94FD028091240325
:1011B00090912503080F191F60E0F80180810E94BB
:1011C0002F0333949CCFC0ECD2E0FE01878D90A119
:1011D000892B31F4148E8FEF9FEF968F858F11A29C
:1011E000369692E0EC3FF90789F7F12C80912603BF
:1011F000F81608F051C0E12C0F2D10E0000F111F60
:1012000008531D4F20912703E21608F043C0F80150
:10121000608171810E2C02C0769567950A94E2F781
:10122000F29E900111242E0D311DE0ECF2E080E0E1
:10123000458D568D2417350709F4BCC28F5F36964D
:101240008A30B1F760FF24C0E0ECF2E090E080E08B
:10125000448D411118C0E0912003F0912103E20F69
:10126000F31F408156E0589FF001599FF00D112463
:10127000E054FD4F448F368F258F10A2178E61E00A
:101280000E942B0105C0019636968A30910501F720
:10129000E394B8CFF394AACF80E099A19111892F5C
:1012A000269692E0CC3FD907C1F79FB7F8944091BA
:1012B000FA015091FB016091FC017091FD019FBF0B
:1012C00040931C0350931D0360931E0370931F03F0
:1012D0008823D1F08091E1028823B1F08091DF0270
:1012E0009091E002019781F41091DC0211110FC07E
:1012F0004114510409F4C3CE0E946702882309F403
:10130000BECE0E940000BBCE10922C03F1CF0E94F3
:101310008E0460E080E00E94370580E691E00E9444
:10132000D90361E087E00E9437058AE691E00E94D8
:10133000D90361E087E00E943705D0E0C0E08091EA
:10134000F8019091F9018C179D0734F08DE491E03C
:101350000E94D9032196F3CFFC01E459FE4F20816E
:101360002113DDC101969093F9018093F801049750
:1013700009F0BECF64E873E080E090E00E9494033F
:1013800060E080E00E9437056AE671E08FE293E05A
:101390000E94DE0360E081E00E94370581E791E072
:1013A0000E94D90361E084E00E94370560E871E0A3
:1013B0008FE293E00E94DE0361E08FE00E94370538
:1013C0006AE671E08FE293E00E94DE0361E080E173
:1013D0000E9437056AE671E08FE293E00E94DE0327
:1013E00061E08EE00E9437056AE671E08FE293E0EB
:1013F0000E94DE0361E08DE00E9437056AE671E03D
:101400008FE293E00E94DE037092F7016092F60192
:10141000C091F601D091F701D7FD0FC0CE010E9417
:101420008C0065E070E080E090E00E9494032597D6
:10143000D093F701C093F601EBCF60ED77E080E049
:1014400090E00E94940368EE73E080E090E00E94D8
:10145000940360EB74E080E090E00E9494030E94AB
:101460008E046FE082E00E9437056AE671E08FE249
:1014700093E00E94DE036EE082E00E9437056AE698
:1014800071E08FE293E00E94DE0360E082E00E9460
:10149000370568EC70E080E090E00E94940367E814
:1014A00071E08FE293E00E94DE0361E084E00E943D
:1014B000370585E991E00E94D90368EC70E080E08F
:1014C00090E00E9494030E948E0460E082E00E94FB
:1014D000370567E871E08FE293E00E94DE0368EE73
:1014E00073E080E090E00E94940360E082E00E945C
:1014F000370567E871E08FE293E00E94DE0361E068
:1015000084E00E94370587E991E00E94D90364E6F0
:1015100070E080E090E00E9494030E948E0460E0FE
:1015200082E00E94370567E871E08FE293E00E9455
:10153000DE0368EE73E080E090E00E94940360E0D8
:1015400082E00E94370567E871E08FE293E00E9435
:10155000DE0361E084E00E94370589E991E00E94A2
:10156000D90364E670E080E090E00E9494030E945A
:101570008E0460E082E00E94370567E871E08FE248
:1015800093E00E94DE0368EE73E080E090E00E944A
:10159000940360E082E00E94370567E871E08FE223
:1015A00093E00E94DE0361E084E00E9437058BE94E
:1015B00091E00E94D90364E670E080E090E00E9430
:1015C00094030E948E0460E082E00E94370567E881
:1015D00071E08FE293E00E94DE0368EE73E080E04A
:1015E00090E00E94940361E084E00E9437058FE65A
:1015F00091E00E94D90364E670E080E090E00E94F0
:1016000094030E948E0460E082E00E94370567E840
:1016100071E08FE293E00E94DE0368EE73E080E009
:1016200090E00E94940368E270E080E090E00E9405
:1016300094030E948E0460E082E00E9437058DE9E9
:1016400091E00E94D90364EF71E080E090E00E9495
:10165000940360E08CE00E94370588EA91E00E94E4
:10166000D90364EF71E080E090E00E94940360E0B1
:101670008DE00E94370588EA91E00E94D90364EF6B
:1016800071E080E090E00E94940360E08EE00E94B0
:10169000370588EA91E00E94D90360E971E080E0B3
:1016A00090E00E9494030E948E0460E084E00E9417
:1016B00037058AEA91E00E94D90368EB71E080E087
:1016C00090E00E94940368EE73E080E090E00E9456
:1016D00094031092F7011092F6018091F601909117
:1016E000F701853B91050CF060C00E948C006FE013
:1016F00070E080E090E00E9494031092F901109253
:10170000F8010E948E040E9449058091F601909193
:10171000F70105969093F7018093F601DECF64EF11
:1017200071E080E090E00E9494030E948E0460E0EB
:1017300081E00E9437058CEB91E00E94D90360E0C4
:1017400086E00E94370582EB91E00E94D90361E0B8
:101750008FE00E9437056AE671E08FE293E00E9415
:10176000DE0361E084E00E94370561EC71E08FE206
:1017700093E00E94DE0361E08DE00E9437056AE697
:1017800071E08FE293E00E94DE036BEC71E08EEF7C
:1017900091E00E94DE0368EB7BE080E090E00E9435
:1017A00094030E948E040E9449051092F901109240
:1017B000F8019ECD617064CD052E97FB1EF4009458
:1017C0000E94F30B57FD07D00E940E0C07FC03D0BC
:1017D0004EF40C94F30B50954095309521953F4F66
:1017E0004F4F5F4F089590958095709561957F4F0D
:1017F0008F4F9F4F08950E94300CA59F900DB49F6E
:10180000900DA49F800D911D11240895B7FF0C9495
:10181000FB0B0E94FB0B821B930B0895A1E21A2E77
:10182000AA1BBB1BFD010DC0AA1FBB1FEE1FFF1F84
:10183000A217B307E407F50720F0A21BB30BE40BD4
:10184000F50B661F771F881F991F1A9469F760951B
:101850007095809590959B01AC01BD01CF010895D5
:10186000A29FB001B39FC001A39F700D811D1124E1
:10187000911DB29F700D811D1124911D0895991B1A
:1018800079E004C0991F961708F0961B881F7A9577
:10189000C9F780950895EE0FFF1F0590F491E02D94
:0618A0000994F894FFCF4B
:1018A6000405060001020331323334353637383940
:1018B6002A302300000000FA017B029B014702CC7C
:1018C60001AA01BE01000000006B032B03FA02000F
:1018D6000000005D057B02C703C6030D0A002A450A
:1018E6004E5445522054484520434F44452A0054FF
:1018F6004F204F50454E2054484520444F4F5200EC
:1019060050415353574F52443A0020003131313140
:1019160000416363657373204772616E746564008A
:10192600456E7465722100474F20494E2057495431
:1019360048494E3A00350034003300320052452DF6
:101946004C4F434B494E47002E004C4F434B4544AA
:101956002100494E434F525245435420434F44457C
:101966000054525920414741494E00434F444520B7
:10197600494E434F525245435420594F55204152E8
:101986004520554E415554484F52495A454400004A
:00000001FF
